{
  "_format": "hh-sol-artifact-1",
  "contractName": "Faucet",
  "sourceName": "contracts/Mainnetz/Util/Faucet.sol",
  "abi": [
    {
      "anonymous": false,
      "inputs": [
        {
          "indexed": true,
          "internalType": "address",
          "name": "to",
          "type": "address"
        }
      ],
      "name": "Claim",
      "type": "event"
    },
    {
      "anonymous": false,
      "inputs": [
        {
          "indexed": false,
          "internalType": "uint256",
          "name": "value",
          "type": "uint256"
        }
      ],
      "name": "Donation",
      "type": "event"
    },
    {
      "inputs": [
        {
          "internalType": "address",
          "name": "_user",
          "type": "address"
        }
      ],
      "name": "claim",
      "outputs": [],
      "stateMutability": "nonpayable",
      "type": "function"
    },
    {
      "inputs": [],
      "name": "claimAmount",
      "outputs": [
        {
          "internalType": "uint256",
          "name": "",
          "type": "uint256"
        }
      ],
      "stateMutability": "view",
      "type": "function"
    },
    {
      "inputs": [],
      "name": "donate",
      "outputs": [],
      "stateMutability": "payable",
      "type": "function"
    },
    {
      "inputs": [],
      "name": "feeSetterContract",
      "outputs": [
        {
          "internalType": "contract FeeReward",
          "name": "",
          "type": "address"
        }
      ],
      "stateMutability": "view",
      "type": "function"
    },
    {
      "inputs": [
        {
          "internalType": "address",
          "name": "",
          "type": "address"
        }
      ],
      "name": "hasClaimed",
      "outputs": [
        {
          "internalType": "bool",
          "name": "",
          "type": "bool"
        }
      ],
      "stateMutability": "view",
      "type": "function"
    },
    {
      "stateMutability": "payable",
      "type": "receive"
    }
  ],
  "bytecode": "0x608060405266b1a2bc2ec50000600055348015601a57600080fd5b50604051635e885d3b60e11b815230600482015261f0009063bd10ba76906024016020604051808303816000875af11580156059573d6000803e3d6000fd5b505050506040513d601f19601f82011682018060405250810190607b91906080565b5060a7565b600060208284031215609157600080fd5b8151801515811460a057600080fd5b9392505050565b61038e806100b66000396000f3fe60806040526004361061004e5760003560e01c80631e83409a1461008d57806320716d66146100af57806373b2e80e146100e2578063830953ab14610122578063ed88c68e1461014657600080fd5b36610088576040513481527f4ad6d3cd6f9acbf734536f9812be14aded33cc8c4ae2cfbf3ff9a0a4acb337489060200160405180910390a1005b600080fd5b34801561009957600080fd5b506100ad6100a8366004610328565b61014e565b005b3480156100bb57600080fd5b506100c561f00081565b6040516001600160a01b0390911681526020015b60405180910390f35b3480156100ee57600080fd5b506101126100fd366004610328565b60016020526000908152604090205460ff1681565b60405190151581526020016100d9565b34801561012e57600080fd5b5061013860005481565b6040519081526020016100d9565b6100ad6102f3565b60005447116101a45760405162461bcd60e51b815260206004820152601f60248201527f4e6f204e65747a20617661696c61626c6520696e20746865206661756365740060448201526064015b60405180910390fd5b6001600160a01b03811660009081526001602052604090205460ff161561020d5760405162461bcd60e51b815260206004820152601860248201527f557365722068617320616c726561647920636c61696d65640000000000000000604482015260640161019b565b6001600160a01b0381166000818152600160208190526040808320805460ff1916909217909155815490519192918381818185875af1925050503d8060008114610273576040519150601f19603f3d011682016040523d82523d6000602084013e610278565b606091505b50509050806102bb5760405162461bcd60e51b815260206004820152600f60248201526e151c985b9cd9995c8819985a5b1959608a1b604482015260640161019b565b6040516001600160a01b038316907f0c7ef932d3b91976772937f18d5ef9b39a9930bef486b576c374f047c4b512dc90600090a25050565b6040513481527f4ad6d3cd6f9acbf734536f9812be14aded33cc8c4ae2cfbf3ff9a0a4acb337489060200160405180910390a1565b60006020828403121561033a57600080fd5b81356001600160a01b038116811461035157600080fd5b939250505056fea2646970667358221220ef44fe22ccc481e6ae933d29200344536caf487c970907e087a4220b39e70d0b64736f6c634300081a0033",
  "linkReferences": {},
  "deployedLinkReferences": {}
}