{
  "_format": "hh-sol-artifact-1",
  "contractName": "WNETZBridge",
  "sourceName": "contracts/Mainnetz/Bridge/WNETZBridge.sol",
  "abi": [
    {
      "inputs": [],
      "stateMutability": "nonpayable",
      "type": "constructor"
    },
    {
      "anonymous": false,
      "inputs": [
        {
          "indexed": false,
          "internalType": "bool",
          "name": "status",
          "type": "bool"
        }
      ],
      "name": "BridgeStatusChanged",
      "type": "event"
    },
    {
      "anonymous": false,
      "inputs": [
        {
          "indexed": false,
          "internalType": "uint256",
          "name": "newFee",
          "type": "uint256"
        }
      ],
      "name": "FeeChanged",
      "type": "event"
    },
    {
      "anonymous": false,
      "inputs": [
        {
          "indexed": false,
          "internalType": "uint256",
          "name": "amount",
          "type": "uint256"
        }
      ],
      "name": "FeePaid",
      "type": "event"
    },
    {
      "anonymous": false,
      "inputs": [
        {
          "indexed": true,
          "internalType": "address",
          "name": "sender",
          "type": "address"
        },
        {
          "indexed": true,
          "internalType": "address",
          "name": "recipient",
          "type": "address"
        },
        {
          "indexed": false,
          "internalType": "uint256",
          "name": "amount",
          "type": "uint256"
        }
      ],
      "name": "Incoming",
      "type": "event"
    },
    {
      "anonymous": false,
      "inputs": [
        {
          "indexed": false,
          "internalType": "address",
          "name": "previousOwner",
          "type": "address"
        },
        {
          "indexed": false,
          "internalType": "address",
          "name": "newOwner",
          "type": "address"
        }
      ],
      "name": "MessageOwnershipTransferred",
      "type": "event"
    },
    {
      "anonymous": false,
      "inputs": [
        {
          "indexed": true,
          "internalType": "address",
          "name": "sender",
          "type": "address"
        },
        {
          "indexed": true,
          "internalType": "address",
          "name": "recipient",
          "type": "address"
        },
        {
          "indexed": false,
          "internalType": "uint256",
          "name": "amount",
          "type": "uint256"
        }
      ],
      "name": "Outgoing",
      "type": "event"
    },
    {
      "anonymous": false,
      "inputs": [
        {
          "indexed": false,
          "internalType": "address",
          "name": "owner",
          "type": "address"
        },
        {
          "indexed": false,
          "internalType": "address",
          "name": "token",
          "type": "address"
        },
        {
          "indexed": false,
          "internalType": "uint256",
          "name": "amount",
          "type": "uint256"
        }
      ],
      "name": "RecoverToken",
      "type": "event"
    },
    {
      "anonymous": false,
      "inputs": [
        {
          "indexed": false,
          "internalType": "uint256",
          "name": "txId",
          "type": "uint256"
        },
        {
          "indexed": false,
          "internalType": "uint256",
          "name": "destinationChainId",
          "type": "uint256"
        },
        {
          "indexed": false,
          "internalType": "uint32",
          "name": "featureId",
          "type": "uint32"
        },
        {
          "indexed": false,
          "internalType": "bytes",
          "name": "featureData",
          "type": "bytes"
        }
      ],
      "name": "SendMessageWithFeature",
      "type": "event"
    },
    {
      "anonymous": false,
      "inputs": [
        {
          "indexed": false,
          "internalType": "address",
          "name": "owner",
          "type": "address"
        },
        {
          "indexed": false,
          "internalType": "address",
          "name": "exsig",
          "type": "address"
        }
      ],
      "name": "SetExsig",
      "type": "event"
    },
    {
      "anonymous": false,
      "inputs": [
        {
          "indexed": false,
          "internalType": "address",
          "name": "owner",
          "type": "address"
        },
        {
          "indexed": false,
          "internalType": "uint256",
          "name": "maxfee",
          "type": "uint256"
        }
      ],
      "name": "SetMaxfee",
      "type": "event"
    },
    {
      "anonymous": false,
      "inputs": [
        {
          "indexed": false,
          "internalType": "address",
          "name": "owner",
          "type": "address"
        },
        {
          "indexed": false,
          "internalType": "uint256",
          "name": "maxGas",
          "type": "uint256"
        }
      ],
      "name": "SetMaxgas",
      "type": "event"
    },
    {
      "stateMutability": "payable",
      "type": "fallback"
    },
    {
      "inputs": [],
      "name": "BRIDGE_ENABLED",
      "outputs": [
        {
          "internalType": "bool",
          "name": "",
          "type": "bool"
        }
      ],
      "stateMutability": "view",
      "type": "function"
    },
    {
      "inputs": [
        {
          "internalType": "uint256",
          "name": "",
          "type": "uint256"
        }
      ],
      "name": "CHAINS",
      "outputs": [
        {
          "internalType": "address",
          "name": "endpoint",
          "type": "address"
        },
        {
          "internalType": "bytes",
          "name": "endpointExtended",
          "type": "bytes"
        },
        {
          "internalType": "uint16",
          "name": "confirmations",
          "type": "uint16"
        },
        {
          "internalType": "bool",
          "name": "extended",
          "type": "bool"
        }
      ],
      "stateMutability": "view",
      "type": "function"
    },
    {
      "inputs": [
        {
          "internalType": "uint256",
          "name": "",
          "type": "uint256"
        },
        {
          "internalType": "uint32",
          "name": "",
          "type": "uint32"
        }
      ],
      "name": "FEATURES",
      "outputs": [
        {
          "internalType": "address",
          "name": "endpoint",
          "type": "address"
        },
        {
          "internalType": "bytes",
          "name": "endpointExtended",
          "type": "bytes"
        },
        {
          "internalType": "uint16",
          "name": "confirmations",
          "type": "uint16"
        },
        {
          "internalType": "bool",
          "name": "extended",
          "type": "bool"
        }
      ],
      "stateMutability": "view",
      "type": "function"
    },
    {
      "inputs": [],
      "name": "FEATURE_GATEWAY",
      "outputs": [
        {
          "internalType": "contract IFeatureGateway",
          "name": "",
          "type": "address"
        }
      ],
      "stateMutability": "view",
      "type": "function"
    },
    {
      "inputs": [],
      "name": "FEE_DENOMINATOR",
      "outputs": [
        {
          "internalType": "uint256",
          "name": "",
          "type": "uint256"
        }
      ],
      "stateMutability": "view",
      "type": "function"
    },
    {
      "inputs": [],
      "name": "FEE_NUMERATOR",
      "outputs": [
        {
          "internalType": "uint256",
          "name": "",
          "type": "uint256"
        }
      ],
      "stateMutability": "view",
      "type": "function"
    },
    {
      "inputs": [],
      "name": "FEE_TOKEN",
      "outputs": [
        {
          "internalType": "contract IERC20cl",
          "name": "",
          "type": "address"
        }
      ],
      "stateMutability": "view",
      "type": "function"
    },
    {
      "inputs": [],
      "name": "MESSAGE_OWNER",
      "outputs": [
        {
          "internalType": "address",
          "name": "",
          "type": "address"
        }
      ],
      "stateMutability": "view",
      "type": "function"
    },
    {
      "inputs": [],
      "name": "MESSAGEv3",
      "outputs": [
        {
          "internalType": "contract IMessageV3",
          "name": "",
          "type": "address"
        }
      ],
      "stateMutability": "view",
      "type": "function"
    },
    {
      "inputs": [],
      "name": "WNETZ",
      "outputs": [
        {
          "internalType": "contract IWTOKEN",
          "name": "",
          "type": "address"
        }
      ],
      "stateMutability": "view",
      "type": "function"
    },
    {
      "inputs": [
        {
          "internalType": "address",
          "name": "_recipient",
          "type": "address"
        },
        {
          "internalType": "uint256",
          "name": "_amount",
          "type": "uint256"
        },
        {
          "internalType": "uint256",
          "name": "_destChainId",
          "type": "uint256"
        }
      ],
      "name": "bridge",
      "outputs": [
        {
          "internalType": "uint256",
          "name": "txId",
          "type": "uint256"
        }
      ],
      "stateMutability": "payable",
      "type": "function"
    },
    {
      "inputs": [
        {
          "internalType": "uint256",
          "name": "amount",
          "type": "uint256"
        }
      ],
      "name": "calculateFee",
      "outputs": [
        {
          "internalType": "uint256",
          "name": "",
          "type": "uint256"
        }
      ],
      "stateMutability": "view",
      "type": "function"
    },
    {
      "inputs": [
        {
          "internalType": "uint256",
          "name": "newFee",
          "type": "uint256"
        }
      ],
      "name": "changeFeeNumerator",
      "outputs": [],
      "stateMutability": "nonpayable",
      "type": "function"
    },
    {
      "inputs": [
        {
          "internalType": "address",
          "name": "_messageV3",
          "type": "address"
        },
        {
          "internalType": "uint256[]",
          "name": "_chains",
          "type": "uint256[]"
        },
        {
          "internalType": "address[]",
          "name": "_endpoints",
          "type": "address[]"
        },
        {
          "internalType": "uint16[]",
          "name": "_confirmations",
          "type": "uint16[]"
        }
      ],
      "name": "configureClient",
      "outputs": [],
      "stateMutability": "nonpayable",
      "type": "function"
    },
    {
      "inputs": [
        {
          "internalType": "address",
          "name": "_messageV3",
          "type": "address"
        },
        {
          "internalType": "uint256[]",
          "name": "_chains",
          "type": "uint256[]"
        },
        {
          "internalType": "bytes[]",
          "name": "_endpoints",
          "type": "bytes[]"
        },
        {
          "internalType": "uint16[]",
          "name": "_confirmations",
          "type": "uint16[]"
        }
      ],
      "name": "configureClientExtended",
      "outputs": [],
      "stateMutability": "nonpayable",
      "type": "function"
    },
    {
      "inputs": [
        {
          "internalType": "address",
          "name": "_featureGateway",
          "type": "address"
        }
      ],
      "name": "configureFeatureGateway",
      "outputs": [],
      "stateMutability": "nonpayable",
      "type": "function"
    },
    {
      "inputs": [],
      "name": "feeSetterContract",
      "outputs": [
        {
          "internalType": "contract FeeReward",
          "name": "",
          "type": "address"
        }
      ],
      "stateMutability": "view",
      "type": "function"
    },
    {
      "inputs": [],
      "name": "feeTokenBalance",
      "outputs": [
        {
          "internalType": "uint256",
          "name": "",
          "type": "uint256"
        }
      ],
      "stateMutability": "view",
      "type": "function"
    },
    {
      "inputs": [
        {
          "internalType": "address",
          "name": "_sender",
          "type": "address"
        },
        {
          "internalType": "uint256",
          "name": "_sourceChainId",
          "type": "uint256"
        }
      ],
      "name": "isAuthorized",
      "outputs": [
        {
          "internalType": "bool",
          "name": "",
          "type": "bool"
        }
      ],
      "stateMutability": "view",
      "type": "function"
    },
    {
      "inputs": [
        {
          "internalType": "address",
          "name": "_sender",
          "type": "address"
        },
        {
          "internalType": "uint256",
          "name": "_sourceChainId",
          "type": "uint256"
        }
      ],
      "name": "isSelf",
      "outputs": [
        {
          "internalType": "bool",
          "name": "",
          "type": "bool"
        }
      ],
      "stateMutability": "view",
      "type": "function"
    },
    {
      "inputs": [
        {
          "internalType": "uint256",
          "name": "",
          "type": "uint256"
        },
        {
          "internalType": "uint256",
          "name": "_sourceChainId",
          "type": "uint256"
        },
        {
          "internalType": "address",
          "name": "_sender",
          "type": "address"
        },
        {
          "internalType": "address",
          "name": "",
          "type": "address"
        },
        {
          "internalType": "uint256",
          "name": "",
          "type": "uint256"
        },
        {
          "internalType": "bytes",
          "name": "_data",
          "type": "bytes"
        }
      ],
      "name": "messageProcess",
      "outputs": [],
      "stateMutability": "nonpayable",
      "type": "function"
    },
    {
      "inputs": [],
      "name": "nativeBalance",
      "outputs": [
        {
          "internalType": "uint256",
          "name": "",
          "type": "uint256"
        }
      ],
      "stateMutability": "view",
      "type": "function"
    },
    {
      "inputs": [
        {
          "internalType": "address",
          "name": "_token",
          "type": "address"
        },
        {
          "internalType": "uint256",
          "name": "_amount",
          "type": "uint256"
        }
      ],
      "name": "recoverToken",
      "outputs": [],
      "stateMutability": "nonpayable",
      "type": "function"
    },
    {
      "inputs": [
        {
          "internalType": "address",
          "name": "_signer",
          "type": "address"
        }
      ],
      "name": "setExsig",
      "outputs": [],
      "stateMutability": "nonpayable",
      "type": "function"
    },
    {
      "inputs": [
        {
          "internalType": "uint256",
          "name": "_maxFee",
          "type": "uint256"
        }
      ],
      "name": "setMaxfee",
      "outputs": [],
      "stateMutability": "nonpayable",
      "type": "function"
    },
    {
      "inputs": [
        {
          "internalType": "uint256",
          "name": "_maxGas",
          "type": "uint256"
        }
      ],
      "name": "setMaxgas",
      "outputs": [],
      "stateMutability": "nonpayable",
      "type": "function"
    },
    {
      "inputs": [
        {
          "internalType": "bool",
          "name": "status",
          "type": "bool"
        }
      ],
      "name": "toggleBridging",
      "outputs": [],
      "stateMutability": "nonpayable",
      "type": "function"
    },
    {
      "inputs": [
        {
          "internalType": "address",
          "name": "_newMessageOwner",
          "type": "address"
        }
      ],
      "name": "transferMessageOwnership",
      "outputs": [],
      "stateMutability": "nonpayable",
      "type": "function"
    },
    {
      "inputs": [],
      "name": "wnetzBalance",
      "outputs": [
        {
          "internalType": "uint256",
          "name": "",
          "type": "uint256"
        }
      ],
      "stateMutability": "view",
      "type": "function"
    },
    {
      "stateMutability": "payable",
      "type": "receive"
    }
  ],
  "bytecode": "0x60806040526064603855603980546001600160a81b0319167441c515fa7d541bcbdefb44f0fe2b1629aec140b900179055348015603b57600080fd5b50604051635e885d3b60e11b815230600482015261f0009063bd10ba76906024016020604051808303816000875af1158015607a573d6000803e3d6000fd5b505050506040513d601f19601f82011682018060405250810190609c919060b3565b50600580546001600160a01b0319163317905560da565b60006020828403121560c457600080fd5b8151801515811460d357600080fd5b9392505050565b61212e806100e96000396000f3fe6080604052600436106101ae5760003560e01c8063865fc501116100eb578063b7f494a41161008f578063e47ad74d11610061578063e47ad74d146104de578063eba62838146104fe578063f52a919814610513578063f71941381461053357005b8063b7f494a414610468578063bb0b983014610488578063c60853f6146104a8578063d73792a9146104c857005b806399a5d747116100c857806399a5d747146103ee578063a93698fa1461040e578063b29a814014610428578063b479a9611461044857005b8063865fc5011461038b57806390b38e011461039e57806392ae12fd146103be57005b806341cd47bf116101525780635f46e7401161012f5780635f46e740146103165780636c3fb03d1461033657806373717b081461034b578063853c75d81461036b57005b806341cd47bf146102bb57806354487ade146102d1578063559b2f65146102f657005b806320bfe3421161018b57806320bfe3421461022b5780632972b0f01461025b5780632ee02d7c1461027b578063379d783d1461029b57005b80630bf5d35e146101b75780630d029802146101dd57806320716d661461021557005b366101b557005b005b6101ca6101c5366004611a7c565b610553565b6040519081526020015b60405180910390f35b3480156101e957600080fd5b506000546101fd906001600160a01b031681565b6040516001600160a01b0390911681526020016101d4565b34801561022157600080fd5b506101fd61f00081565b34801561023757600080fd5b5061024b610246366004611ab1565b6108af565b60405190151581526020016101d4565b34801561026757600080fd5b5061024b610276366004611ab1565b6108e3565b34801561028757600080fd5b506101b5610296366004611b29565b6108f6565b3480156102a757600080fd5b506101b56102b6366004611bf0565b610a7c565b3480156102c757600080fd5b506101ca60385481565b3480156102dd57600080fd5b506039546101fd9061010090046001600160a01b031681565b34801561030257600080fd5b506101b5610311366004611c0d565b610aee565b34801561032257600080fd5b506101b5610331366004611c2a565b610b6d565b34801561034257600080fd5b506101ca610d3a565b34801561035757600080fd5b506001546101fd906001600160a01b031681565b34801561037757600080fd5b506005546101fd906001600160a01b031681565b34801561039757600080fd5b50476101ca565b3480156103aa57600080fd5b506101b56103b9366004611ce2565b610dad565b3480156103ca57600080fd5b506103de6103d9366004611ce2565b610e4b565b6040516101d49493929190611d41565b3480156103fa57600080fd5b506101ca610409366004611ce2565b610f10565b34801561041a57600080fd5b5060395461024b9060ff1681565b34801561043457600080fd5b506101b5610443366004611ab1565b610f2d565b34801561045457600080fd5b506101b5610463366004611ce2565b6110b5565b34801561047457600080fd5b506101b5610483366004611b29565b611174565b34801561049457600080fd5b506002546101fd906001600160a01b031681565b3480156104b457600080fd5b506101b56104c3366004611c0d565b611317565b3480156104d457600080fd5b506101ca61271081565b3480156104ea57600080fd5b506101b56104f9366004611ce2565b6113df565b34801561050a57600080fd5b506101ca61149e565b34801561051f57600080fd5b506103de61052e366004611d81565b6114d4565b34801561053f57600080fd5b506101b561054e366004611c0d565b61150b565b60008181526004602052604081205482906001600160a01b03166105d25760405162461bcd60e51b815260206004820152602b60248201527f4d657373616765436c69656e743a2064657374696e6174696f6e20636861696e60448201526a206e6f742061637469766560a81b60648201526084015b60405180910390fd5b60395460ff1661061c5760405162461bcd60e51b8152602060048201526015602482015274109c9a5919d9481a5cc81b9bdd08195b98589b1959605a1b60448201526064016105c9565b831561076557603954604051636eb1769f60e11b8152336004820152306024820152859161010090046001600160a01b03169063dd62ed3e90604401602060405180830381865afa158015610675573d6000803e3d6000fd5b505050506040513d601f19601f820116820180604052508101906106999190611dba565b10156106e05760405162461bcd60e51b8152602060048201526016602482015275496e73756666696369656e7420616c6c6f77616e636560501b60448201526064016105c9565b6039546040516323b872dd60e01b8152336004820152306024820152604481018690526101009091046001600160a01b0316906323b872dd906064016020604051808303816000875af115801561073b573d6000803e3d6000fd5b505050506040513d601f19601f8201168201806040525081019061075f9190611dd3565b50610813565b600034116107a65760405162461bcd60e51b815260206004820152600e60248201526d125b9d985b1a5908185b5bdd5b9d60921b60448201526064016105c9565b603960019054906101000a90046001600160a01b03166001600160a01b031663d0e30db0346040518263ffffffff1660e01b81526004016000604051808303818588803b1580156107f657600080fd5b505af115801561080a573d6000803e3d6000fd5b50505050503493505b600061081e85611557565b604080516001600160a01b0389166020820152908101829052909150610857908590606001604051602081830303815290604052611630565b9250856001600160a01b0316336001600160a01b03167f8d94b2e379e890fdbf51f77bbe145e2c7764c9e2028814f1ac01107786c6bf8f8360405161089e91815260200190565b60405180910390a350509392505050565b6000818152600460205260408120546001600160a01b03908116908416036108d9575060016108dd565b5060005b92915050565b60006108ef83836108af565b9392505050565b6005546001600160a01b031633146109205760405162461bcd60e51b81526004016105c990611df0565b8460005b81811015610a685783838281811061093e5761093e611e27565b90506020020160208101906109539190611e3d565b600460008a8a8581811061096957610969611e27565b90506020020135815260200190815260200160002060020160006101000a81548161ffff021916908361ffff1602179055508585828181106109ad576109ad611e27565b90506020020160208101906109c29190611c0d565b600460008a8a858181106109d8576109d8611e27565b90506020020135815260200190815260200160002060000160006101000a8154816001600160a01b0302191690836001600160a01b031602179055506000600460008a8a85818110610a2c57610a2c611e27565b602090810292909201358352508101919091526040016000206002018054911515620100000262ff000019909216919091179055600101610924565b50610a72886117cb565b5050505050505050565b6005546001600160a01b03163314610aa65760405162461bcd60e51b81526004016105c990611df0565b6039805460ff19168215159081179091556040519081527fd760ba8b9579a3b6a73205d8e7901f94f1d8922a1ed770942a80e2871e3bdafa906020015b60405180910390a150565b6005546001600160a01b03163314610b185760405162461bcd60e51b81526004016105c990611df0565b600580546001600160a01b0319166001600160a01b0383169081179091556040805133815260208101929092527fe1a25f463c6504824e91268b5b2c05658d5358c9c1698a85346cfae5336a642e9101610ae3565b600054859087906001600160a01b03163314610b9b5760405162461bcd60e51b81526004016105c990611df0565b6000818152600460205260409020546001600160a01b03838116911614610bd45760405162461bcd60e51b81526004016105c990611df0565b600080610be385870187611ab1565b603954604051632e1a7d4d60e01b81526004810183905292945090925061010090046001600160a01b031690632e1a7d4d90602401600060405180830381600087803b158015610c3257600080fd5b505af1158015610c46573d6000803e3d6000fd5b505050506000826001600160a01b03168260405160006040518083038185875af1925050503d8060008114610c97576040519150601f19603f3d011682016040523d82523d6000602084013e610c9c565b606091505b5050905080610cdf5760405162461bcd60e51b815260206004820152600f60248201526e151c985b9cd9995c8819985a5b1959608a1b60448201526064016105c9565b826001600160a01b03168a6001600160a01b03167f31603f48a770a6fa5e95474f1f28f453da338d6412a01fb05cb33cfdafed692f84604051610d2491815260200190565b60405180910390a3505050505050505050505050565b6001546040516370a0823160e01b81523060048201526000916001600160a01b0316906370a08231906024015b602060405180830381865afa158015610d84573d6000803e3d6000fd5b505050506040513d601f19601f82011682018060405250810190610da89190611dba565b905090565b6005546001600160a01b03163314610dd75760405162461bcd60e51b81526004016105c990611df0565b6127108110610e165760405162461bcd60e51b815260206004820152600b60248201526a496e76616c69642066656560a81b60448201526064016105c9565b60388190556040518181527f6bbc57480a46553fa4d156ce702beef5f3ad66303b0ed1a5d4cb44966c6584c390602001610ae3565b600460205260009081526040902080546001820180546001600160a01b039092169291610e7790611e61565b80601f0160208091040260200160405190810160405280929190818152602001828054610ea390611e61565b8015610ef05780601f10610ec557610100808354040283529160200191610ef0565b820191906000526020600020905b815481529060010190602001808311610ed357829003601f168201915b5050506002909301549192505061ffff81169060ff620100009091041684565b600061271060385483610f239190611eb1565b6108dd9190611ec8565b6005546001600160a01b03163314610f575760405162461bcd60e51b81526004016105c990611df0565b6001600160a01b038216610ff557604051600090339083908381818185875af1925050503d8060008114610fa7576040519150601f19603f3d011682016040523d82523d6000602084013e610fac565b606091505b5050905080610fef5760405162461bcd60e51b815260206004820152600f60248201526e151c985b9cd9995c8819985a5b1959608a1b60448201526064016105c9565b50611068565b60405163a9059cbb60e01b8152336004820152602481018290526001600160a01b0383169063a9059cbb906044016020604051808303816000875af1158015611042573d6000803e3d6000fd5b505050506040513d601f19601f820116820180604052508101906110669190611dd3565b505b604080513381526001600160a01b03841660208201529081018290527f16a1412f01b73c390eb2548427101644aa86c1443c272f73df00fb74c48fe4999060600160405180910390a15050565b6005546001600160a01b031633146110df5760405162461bcd60e51b81526004016105c990611df0565b60005460405163b479a96160e01b8152600481018390526001600160a01b039091169063b479a96190602401600060405180830381600087803b15801561112557600080fd5b505af1158015611139573d6000803e3d6000fd5b505060408051338152602081018590527f7b6bdf5a54b984bdb41e777eb126123085d57633ab56d408d9a1d39dd894e7bb9350019050610ae3565b6005546001600160a01b0316331461119e5760405162461bcd60e51b81526004016105c990611df0565b8460005b81811015610a68578383828181106111bc576111bc611e27565b90506020020160208101906111d19190611e3d565b600460008a8a858181106111e7576111e7611e27565b90506020020135815260200190815260200160002060020160006101000a81548161ffff021916908361ffff16021790555085858281811061122b5761122b611e27565b905060200281019061123d9190611eea565b600460008b8b8681811061125357611253611e27565b9050602002013581526020019081526020016000206001019182611278929190611f96565b506001600460008a8a8581811061129157611291611e27565b90506020020135815260200190815260200160002060020160026101000a81548160ff0219169083151502179055506001600460008a8a858181106112d8576112d8611e27565b6020908102929092013583525081019190915260400160002080546001600160a01b0319166001600160a01b03929092169190911790556001016111a2565b6005546001600160a01b031633146113415760405162461bcd60e51b81526004016105c990611df0565b60005460405163630429fb60e11b81526001600160a01b0383811660048301529091169063c60853f690602401600060405180830381600087803b15801561138857600080fd5b505af115801561139c573d6000803e3d6000fd5b5050604080513381526001600160a01b03851660208201527f3785abad972484d82ebc033d8eb190737cd209b24e7f853dd622e415c3f537a29350019050610ae3565b6005546001600160a01b031633146114095760405162461bcd60e51b81526004016105c990611df0565b60005460405163e47ad74d60e01b8152600481018390526001600160a01b039091169063e47ad74d90602401600060405180830381600087803b15801561144f57600080fd5b505af1158015611463573d6000803e3d6000fd5b505060408051338152602081018590527f83f76efc0c025b2e3779f7bcead5a89ddaf05dc7829157cdab021a8591e7a6f99350019050610ae3565b6039546040516370a0823160e01b815230600482015260009161010090046001600160a01b0316906370a0823190602401610d67565b6003602090815260009283526040808420909152908252902080546001820180546001600160a01b039092169291610e7790611e61565b6005546001600160a01b031633146115355760405162461bcd60e51b81526004016105c990611df0565b600280546001600160a01b0319166001600160a01b0392909216919091179055565b60008061156383610f10565b60395460055460405163a9059cbb60e01b81526001600160a01b03918216600482015260248101849052929350610100909104169063a9059cbb906044016020604051808303816000875af11580156115c0573d6000803e3d6000fd5b505050506040513d601f19601f820116820180604052508101906115e49190611dd3565b506115ef8184612056565b91507f69e27f80547602d16208b028c44d20f25956e1fb7d0f51d62aa02f392426f3718160405161162291815260200190565b60405180910390a150919050565b600082815260046020908152604080832081516080810190925280546001600160a01b0316825260018101805485948401919061166c90611e61565b80601f016020809104026020016040519081016040528092919081815260200182805461169890611e61565b80156116e55780601f106116ba576101008083540402835291602001916116e5565b820191906000526020600020905b8154815290600101906020018083116116c857829003601f168201915b50505091835250506002919091015461ffff8116602083015262010000900460ff16151560409091015260608101519091501561174557828160200151604051602001611733929190612069565b60405160208183030381529060405292505b6000805482516040808501519051633f6b724360e21b81526001600160a01b039093169363fdadc90c9361178093928a928a92600401612097565b6020604051808303816000875af115801561179f573d6000803e3d6000fd5b505050506040513d601f19601f820116820180604052508101906117c39190611dba565b949350505050565b600080546001600160a01b0319166001600160a01b0383169081179091556040805163647846a560e01b8152905163647846a5916004808201926020929091908290030181865afa158015611824573d6000803e3d6000fd5b505050506040513d601f19601f8201168201806040525081019061184891906120db565b600180546001600160a01b0319166001600160a01b03929092169182179055156118e85760015460005460405163095ea7b360e01b81526001600160a01b039182166004820152600019602482015291169063095ea7b3906044016020604051808303816000875af11580156118c2573d6000803e3d6000fd5b505050506040513d601f19601f820116820180604052508101906118e69190611dd3565b505b60006001600160a01b031660008054906101000a90046001600160a01b03166001600160a01b0316633fc8cef36040518163ffffffff1660e01b8152600401602060405180830381865afa158015611944573d6000803e3d6000fd5b505050506040513d601f19601f8201168201806040525081019061196891906120db565b6001600160a01b031614611a645760008054906101000a90046001600160a01b03166001600160a01b0316633fc8cef36040518163ffffffff1660e01b8152600401602060405180830381865afa1580156119c7573d6000803e3d6000fd5b505050506040513d601f19601f820116820180604052508101906119eb91906120db565b60005460405163095ea7b360e01b81526001600160a01b039182166004820152600019602482015291169063095ea7b3906044016020604051808303816000875af1158015611a3e573d6000803e3d6000fd5b505050506040513d601f19601f82011682018060405250810190611a629190611dd3565b505b50565b6001600160a01b0381168114611a6457600080fd5b600080600060608486031215611a9157600080fd5b8335611a9c81611a67565b95602085013595506040909401359392505050565b60008060408385031215611ac457600080fd5b8235611acf81611a67565b946020939093013593505050565b60008083601f840112611aef57600080fd5b50813567ffffffffffffffff811115611b0757600080fd5b6020830191508360208260051b8501011115611b2257600080fd5b9250929050565b60008060008060008060006080888a031215611b4457600080fd5b8735611b4f81611a67565b9650602088013567ffffffffffffffff811115611b6b57600080fd5b611b778a828b01611add565b909750955050604088013567ffffffffffffffff811115611b9757600080fd5b611ba38a828b01611add565b909550935050606088013567ffffffffffffffff811115611bc357600080fd5b611bcf8a828b01611add565b989b979a50959850939692959293505050565b8015158114611a6457600080fd5b600060208284031215611c0257600080fd5b81356108ef81611be2565b600060208284031215611c1f57600080fd5b81356108ef81611a67565b600080600080600080600060c0888a031215611c4557600080fd5b87359650602088013595506040880135611c5e81611a67565b94506060880135611c6e81611a67565b93506080880135925060a088013567ffffffffffffffff811115611c9157600080fd5b8801601f81018a13611ca257600080fd5b803567ffffffffffffffff811115611cb957600080fd5b8a6020828401011115611ccb57600080fd5b602082019350809250505092959891949750929550565b600060208284031215611cf457600080fd5b5035919050565b6000815180845260005b81811015611d2157602081850181015186830182015201611d05565b506000602082860101526020601f19601f83011685010191505092915050565b6001600160a01b0385168152608060208201819052600090611d6590830186611cfb565b61ffff9490941660408301525090151560609091015292915050565b60008060408385031215611d9457600080fd5b82359150602083013563ffffffff81168114611daf57600080fd5b809150509250929050565b600060208284031215611dcc57600080fd5b5051919050565b600060208284031215611de557600080fd5b81516108ef81611be2565b6020808252601d908201527f4d657373616765436c69656e743a206e6f7420617574686f72697a6564000000604082015260600190565b634e487b7160e01b600052603260045260246000fd5b600060208284031215611e4f57600080fd5b813561ffff811681146108ef57600080fd5b600181811c90821680611e7557607f821691505b602082108103611e9557634e487b7160e01b600052602260045260246000fd5b50919050565b634e487b7160e01b600052601160045260246000fd5b80820281158282048414176108dd576108dd611e9b565b600082611ee557634e487b7160e01b600052601260045260246000fd5b500490565b6000808335601e19843603018112611f0157600080fd5b83018035915067ffffffffffffffff821115611f1c57600080fd5b602001915036819003821315611b2257600080fd5b634e487b7160e01b600052604160045260246000fd5b601f821115611f9157806000526020600020601f840160051c81016020851015611f6e5750805b601f840160051c820191505b81811015611f8e5760008155600101611f7a565b50505b505050565b67ffffffffffffffff831115611fae57611fae611f31565b611fc283611fbc8354611e61565b83611f47565b6000601f841160018114611ff65760008515611fde5750838201355b600019600387901b1c1916600186901b178355611f8e565b600083815260209020601f19861690835b828110156120275786850135825560209485019460019092019101612007565b50868210156120445760001960f88860031b161c19848701351681555b505060018560011b0183555050505050565b818103818111156108dd576108dd611e9b565b60408152600061207c6040830185611cfb565b828103602084015261208e8185611cfb565b95945050505050565b60018060a01b038616815284602082015260a0604082015260006120be60a0830186611cfb565b61ffff949094166060830152509015156080909101529392505050565b6000602082840312156120ed57600080fd5b81516108ef81611a6756fea26469706673582212206c8c6d52a1660406c281c670712ec6e706b79e03dd37b63c028fcf170a559f4664736f6c634300081a0033",
  "linkReferences": {},
  "deployedLinkReferences": {}
}