{
  "_format": "hh-sol-artifact-1",
  "contractName": "ZodiacHelper",
  "sourceName": "contracts/Mainnetz/Dex/ZodiacHelper.sol",
  "abi": [
    {
      "inputs": [
        {
          "internalType": "address",
          "name": "token",
          "type": "address"
        }
      ],
      "name": "createPair",
      "outputs": [
        {
          "internalType": "address",
          "name": "pairAddress",
          "type": "address"
        }
      ],
      "stateMutability": "nonpayable",
      "type": "function"
    },
    {
      "inputs": [],
      "name": "factory",
      "outputs": [
        {
          "internalType": "contract INETZFactory",
          "name": "",
          "type": "address"
        }
      ],
      "stateMutability": "view",
      "type": "function"
    },
    {
      "inputs": [],
      "name": "feeSetterContract",
      "outputs": [
        {
          "internalType": "contract FeeReward",
          "name": "",
          "type": "address"
        }
      ],
      "stateMutability": "view",
      "type": "function"
    },
    {
      "inputs": [],
      "name": "router",
      "outputs": [
        {
          "internalType": "contract INETZRouter02",
          "name": "",
          "type": "address"
        }
      ],
      "stateMutability": "view",
      "type": "function"
    }
  ],
  "bytecode": "0x6080604052600080546001600160a01b03199081167318dfb3186cecebf484b2ea9d8714bbaeb64b5898179091556001805490911673fabc78709e5f99b50ecadf439621b33c0a05f879179055348015605757600080fd5b50604051635e885d3b60e11b815230600482015261f0009063bd10ba76906024016020604051808303816000875af11580156096573d6000803e3d6000fd5b505050506040513d601f19601f8201168201806040525081019060b8919060bd565b5060e4565b60006020828403121560ce57600080fd5b8151801515811460dd57600080fd5b9392505050565b6102b1806100f36000396000f3fe608060405234801561001057600080fd5b506004361061004c5760003560e01c806320716d66146100515780639ccb074414610076578063c45a015514610089578063f887ea401461009c575b600080fd5b61005a61f00081565b6040516001600160a01b03909116815260200160405180910390f35b61005a61008436600461023a565b6100af565b60015461005a906001600160a01b031681565b60005461005a906001600160a01b031681565b60008060009054906101000a90046001600160a01b03166001600160a01b031663c45a01556040518163ffffffff1660e01b8152600401602060405180830381865afa158015610103573d6000803e3d6000fd5b505050506040513d601f19601f82011682018060405250810190610127919061025e565b6001600160a01b031663c9c6539660008054906101000a90046001600160a01b03166001600160a01b031663ad5c46486040518163ffffffff1660e01b8152600401602060405180830381865afa158015610186573d6000803e3d6000fd5b505050506040513d601f19601f820116820180604052508101906101aa919061025e565b6040516001600160e01b031960e084901b1681526001600160a01b03918216600482015290851660248201526044016020604051808303816000875af11580156101f8573d6000803e3d6000fd5b505050506040513d601f19601f8201168201806040525081019061021c919061025e565b92915050565b6001600160a01b038116811461023757600080fd5b50565b60006020828403121561024c57600080fd5b813561025781610222565b9392505050565b60006020828403121561027057600080fd5b81516102578161022256fea264697066735822122022cc0a5687e20fcc96c9c6e6902f09e33fc1cb1e0e834af8632a173784e7383464736f6c634300081a0033",
  "linkReferences": {},
  "deployedLinkReferences": {}
}