{
  "_format": "hh-sol-artifact-1",
  "contractName": "MyToken",
  "sourceName": "contracts/Examples/MyToken.sol",
  "abi": [
    {
      "inputs": [
        {
          "internalType": "string",
          "name": "_name",
          "type": "string"
        },
        {
          "internalType": "string",
          "name": "_symbol",
          "type": "string"
        },
        {
          "internalType": "uint256",
          "name": "_supply",
          "type": "uint256"
        }
      ],
      "stateMutability": "nonpayable",
      "type": "constructor"
    },
    {
      "inputs": [
        {
          "internalType": "address",
          "name": "spender",
          "type": "address"
        },
        {
          "internalType": "uint256",
          "name": "allowance",
          "type": "uint256"
        },
        {
          "internalType": "uint256",
          "name": "needed",
          "type": "uint256"
        }
      ],
      "name": "ERC20InsufficientAllowance",
      "type": "error"
    },
    {
      "inputs": [
        {
          "internalType": "address",
          "name": "sender",
          "type": "address"
        },
        {
          "internalType": "uint256",
          "name": "balance",
          "type": "uint256"
        },
        {
          "internalType": "uint256",
          "name": "needed",
          "type": "uint256"
        }
      ],
      "name": "ERC20InsufficientBalance",
      "type": "error"
    },
    {
      "inputs": [
        {
          "internalType": "address",
          "name": "approver",
          "type": "address"
        }
      ],
      "name": "ERC20InvalidApprover",
      "type": "error"
    },
    {
      "inputs": [
        {
          "internalType": "address",
          "name": "receiver",
          "type": "address"
        }
      ],
      "name": "ERC20InvalidReceiver",
      "type": "error"
    },
    {
      "inputs": [
        {
          "internalType": "address",
          "name": "sender",
          "type": "address"
        }
      ],
      "name": "ERC20InvalidSender",
      "type": "error"
    },
    {
      "inputs": [
        {
          "internalType": "address",
          "name": "spender",
          "type": "address"
        }
      ],
      "name": "ERC20InvalidSpender",
      "type": "error"
    },
    {
      "anonymous": false,
      "inputs": [
        {
          "indexed": true,
          "internalType": "address",
          "name": "owner",
          "type": "address"
        },
        {
          "indexed": true,
          "internalType": "address",
          "name": "spender",
          "type": "address"
        },
        {
          "indexed": false,
          "internalType": "uint256",
          "name": "value",
          "type": "uint256"
        }
      ],
      "name": "Approval",
      "type": "event"
    },
    {
      "anonymous": false,
      "inputs": [
        {
          "indexed": true,
          "internalType": "address",
          "name": "from",
          "type": "address"
        },
        {
          "indexed": true,
          "internalType": "address",
          "name": "to",
          "type": "address"
        },
        {
          "indexed": false,
          "internalType": "uint256",
          "name": "value",
          "type": "uint256"
        }
      ],
      "name": "Transfer",
      "type": "event"
    },
    {
      "inputs": [
        {
          "internalType": "address",
          "name": "owner",
          "type": "address"
        },
        {
          "internalType": "address",
          "name": "spender",
          "type": "address"
        }
      ],
      "name": "allowance",
      "outputs": [
        {
          "internalType": "uint256",
          "name": "",
          "type": "uint256"
        }
      ],
      "stateMutability": "view",
      "type": "function"
    },
    {
      "inputs": [
        {
          "internalType": "address",
          "name": "spender",
          "type": "address"
        },
        {
          "internalType": "uint256",
          "name": "value",
          "type": "uint256"
        }
      ],
      "name": "approve",
      "outputs": [
        {
          "internalType": "bool",
          "name": "",
          "type": "bool"
        }
      ],
      "stateMutability": "nonpayable",
      "type": "function"
    },
    {
      "inputs": [
        {
          "internalType": "address",
          "name": "account",
          "type": "address"
        }
      ],
      "name": "balanceOf",
      "outputs": [
        {
          "internalType": "uint256",
          "name": "",
          "type": "uint256"
        }
      ],
      "stateMutability": "view",
      "type": "function"
    },
    {
      "inputs": [
        {
          "internalType": "uint256",
          "name": "value",
          "type": "uint256"
        }
      ],
      "name": "burn",
      "outputs": [],
      "stateMutability": "nonpayable",
      "type": "function"
    },
    {
      "inputs": [
        {
          "internalType": "address",
          "name": "account",
          "type": "address"
        },
        {
          "internalType": "uint256",
          "name": "value",
          "type": "uint256"
        }
      ],
      "name": "burnFrom",
      "outputs": [],
      "stateMutability": "nonpayable",
      "type": "function"
    },
    {
      "inputs": [],
      "name": "decimals",
      "outputs": [
        {
          "internalType": "uint8",
          "name": "",
          "type": "uint8"
        }
      ],
      "stateMutability": "view",
      "type": "function"
    },
    {
      "inputs": [],
      "name": "feeSetterContract",
      "outputs": [
        {
          "internalType": "contract FeeReward",
          "name": "",
          "type": "address"
        }
      ],
      "stateMutability": "view",
      "type": "function"
    },
    {
      "inputs": [],
      "name": "name",
      "outputs": [
        {
          "internalType": "string",
          "name": "",
          "type": "string"
        }
      ],
      "stateMutability": "view",
      "type": "function"
    },
    {
      "inputs": [],
      "name": "symbol",
      "outputs": [
        {
          "internalType": "string",
          "name": "",
          "type": "string"
        }
      ],
      "stateMutability": "view",
      "type": "function"
    },
    {
      "inputs": [],
      "name": "totalSupply",
      "outputs": [
        {
          "internalType": "uint256",
          "name": "",
          "type": "uint256"
        }
      ],
      "stateMutability": "view",
      "type": "function"
    },
    {
      "inputs": [
        {
          "internalType": "address",
          "name": "to",
          "type": "address"
        },
        {
          "internalType": "uint256",
          "name": "value",
          "type": "uint256"
        }
      ],
      "name": "transfer",
      "outputs": [
        {
          "internalType": "bool",
          "name": "",
          "type": "bool"
        }
      ],
      "stateMutability": "nonpayable",
      "type": "function"
    },
    {
      "inputs": [
        {
          "internalType": "address",
          "name": "from",
          "type": "address"
        },
        {
          "internalType": "address",
          "name": "to",
          "type": "address"
        },
        {
          "internalType": "uint256",
          "name": "value",
          "type": "uint256"
        }
      ],
      "name": "transferFrom",
      "outputs": [
        {
          "internalType": "bool",
          "name": "",
          "type": "bool"
        }
      ],
      "stateMutability": "nonpayable",
      "type": "function"
    }
  ],
  "bytecode": "0x608060405234801561001057600080fd5b50604051610d05380380610d0583398101604081905261002f916102ed565b604051635e885d3b60e11b81523060048201528390839061f0009063bd10ba76906024016020604051808303816000875af1158015610072573d6000803e3d6000fd5b505050506040513d601f19601f82011682018060405250810190610096919061035f565b5060036100a38382610411565b5060046100b08282610411565b5050506100c333826100cb60201b60201c565b5050506104f6565b6001600160a01b0382166100fa5760405163ec442f0560e01b8152600060048201526024015b60405180910390fd5b6101066000838361010a565b5050565b6001600160a01b03831661013557806002600082825461012a91906104cf565b909155506101a79050565b6001600160a01b038316600090815260208190526040902054818110156101885760405163391434e360e21b81526001600160a01b038516600482015260248101829052604481018390526064016100f1565b6001600160a01b03841660009081526020819052604090209082900390555b6001600160a01b0382166101c3576002805482900390556101e2565b6001600160a01b03821660009081526020819052604090208054820190555b816001600160a01b0316836001600160a01b03167fddf252ad1be2c89b69c2b068fc378daa952ba7f163c4a11628f55a4df523b3ef8360405161022791815260200190565b60405180910390a3505050565b634e487b7160e01b600052604160045260246000fd5b600082601f83011261025b57600080fd5b81516001600160401b0381111561027457610274610234565b604051601f8201601f19908116603f011681016001600160401b03811182821017156102a2576102a2610234565b6040528181528382016020018510156102ba57600080fd5b60005b828110156102d9576020818601810151838301820152016102bd565b506000918101602001919091529392505050565b60008060006060848603121561030257600080fd5b83516001600160401b0381111561031857600080fd5b6103248682870161024a565b602086015190945090506001600160401b0381111561034257600080fd5b61034e8682870161024a565b925050604084015190509250925092565b60006020828403121561037157600080fd5b8151801515811461038157600080fd5b9392505050565b600181811c9082168061039c57607f821691505b6020821081036103bc57634e487b7160e01b600052602260045260246000fd5b50919050565b601f82111561040c57806000526020600020601f840160051c810160208510156103e95750805b601f840160051c820191505b8181101561040957600081556001016103f5565b50505b505050565b81516001600160401b0381111561042a5761042a610234565b61043e816104388454610388565b846103c2565b6020601f821160018114610472576000831561045a5750848201515b600019600385901b1c1916600184901b178455610409565b600084815260208120601f198516915b828110156104a25787850151825560209485019460019092019101610482565b50848210156104c05786840151600019600387901b60f8161c191681555b50505050600190811b01905550565b808201808211156104f057634e487b7160e01b600052601160045260246000fd5b92915050565b610800806105056000396000f3fe608060405234801561001057600080fd5b50600436106100b45760003560e01c806342966c681161007157806342966c681461014f57806370a082311461016457806379cc67901461018d57806395d89b41146101a0578063a9059cbb146101a8578063dd62ed3e146101bb57600080fd5b806306fdde03146100b9578063095ea7b3146100d757806318160ddd146100fa57806320716d661461010c57806323b872dd1461012d578063313ce56714610140575b600080fd5b6100c16101f4565b6040516100ce9190610630565b60405180910390f35b6100ea6100e536600461069a565b610286565b60405190151581526020016100ce565b6002545b6040519081526020016100ce565b61011561f00081565b6040516001600160a01b0390911681526020016100ce565b6100ea61013b3660046106c4565b6102a0565b604051601281526020016100ce565b61016261015d366004610701565b6102c4565b005b6100fe61017236600461071a565b6001600160a01b031660009081526020819052604090205490565b61016261019b36600461069a565b6102d1565b6100c16102ea565b6100ea6101b636600461069a565b6102f9565b6100fe6101c936600461073c565b6001600160a01b03918216600090815260016020908152604080832093909416825291909152205490565b6060600380546102039061076f565b80601f016020809104026020016040519081016040528092919081815260200182805461022f9061076f565b801561027c5780601f106102515761010080835404028352916020019161027c565b820191906000526020600020905b81548152906001019060200180831161025f57829003601f168201915b5050505050905090565b600033610294818585610307565b60019150505b92915050565b6000336102ae858285610319565b6102b985858561039c565b506001949350505050565b6102ce33826103fb565b50565b6102dc823383610319565b6102e682826103fb565b5050565b6060600480546102039061076f565b60003361029481858561039c565b6103148383836001610431565b505050565b6001600160a01b038381166000908152600160209081526040808320938616835292905220546000198114610396578181101561038757604051637dc7a0d960e11b81526001600160a01b038416600482015260248101829052604481018390526064015b60405180910390fd5b61039684848484036000610431565b50505050565b6001600160a01b0383166103c657604051634b637e8f60e11b81526000600482015260240161037e565b6001600160a01b0382166103f05760405163ec442f0560e01b81526000600482015260240161037e565b610314838383610506565b6001600160a01b03821661042557604051634b637e8f60e11b81526000600482015260240161037e565b6102e682600083610506565b6001600160a01b03841661045b5760405163e602df0560e01b81526000600482015260240161037e565b6001600160a01b03831661048557604051634a1406b160e11b81526000600482015260240161037e565b6001600160a01b038085166000908152600160209081526040808320938716835292905220829055801561039657826001600160a01b0316846001600160a01b03167f8c5be1e5ebec7d5bd14f71427d1e84f3dd0314c0f7b2291e5b200ac8c7c3b925846040516104f891815260200190565b60405180910390a350505050565b6001600160a01b03831661053157806002600082825461052691906107a9565b909155506105a39050565b6001600160a01b038316600090815260208190526040902054818110156105845760405163391434e360e21b81526001600160a01b0385166004820152602481018290526044810183905260640161037e565b6001600160a01b03841660009081526020819052604090209082900390555b6001600160a01b0382166105bf576002805482900390556105de565b6001600160a01b03821660009081526020819052604090208054820190555b816001600160a01b0316836001600160a01b03167fddf252ad1be2c89b69c2b068fc378daa952ba7f163c4a11628f55a4df523b3ef8360405161062391815260200190565b60405180910390a3505050565b602081526000825180602084015260005b8181101561065e5760208186018101516040868401015201610641565b506000604082850101526040601f19601f83011684010191505092915050565b80356001600160a01b038116811461069557600080fd5b919050565b600080604083850312156106ad57600080fd5b6106b68361067e565b946020939093013593505050565b6000806000606084860312156106d957600080fd5b6106e28461067e565b92506106f06020850161067e565b929592945050506040919091013590565b60006020828403121561071357600080fd5b5035919050565b60006020828403121561072c57600080fd5b6107358261067e565b9392505050565b6000806040838503121561074f57600080fd5b6107588361067e565b91506107666020840161067e565b90509250929050565b600181811c9082168061078357607f821691505b6020821081036107a357634e487b7160e01b600052602260045260246000fd5b50919050565b8082018082111561029a57634e487b7160e01b600052601160045260246000fdfea2646970667358221220fbc3907a107ecb9e3135dad1f53c2b00532089c38cbe7e3b54de1244e378bd2e64736f6c634300081a0033",
  "linkReferences": {},
  "deployedLinkReferences": {}
}