{
  "_format": "hh-sol-artifact-1",
  "contractName": "NETZToken",
  "sourceName": "contracts/Examples/V2Token.sol",
  "abi": [
    {
      "inputs": [
        {
          "internalType": "string",
          "name": "_name",
          "type": "string"
        },
        {
          "internalType": "string",
          "name": "_symbol",
          "type": "string"
        },
        {
          "internalType": "uint256",
          "name": "_supply",
          "type": "uint256"
        },
        {
          "internalType": "address",
          "name": "_owner",
          "type": "address"
        }
      ],
      "stateMutability": "nonpayable",
      "type": "constructor"
    },
    {
      "inputs": [
        {
          "internalType": "address",
          "name": "spender",
          "type": "address"
        },
        {
          "internalType": "uint256",
          "name": "allowance",
          "type": "uint256"
        },
        {
          "internalType": "uint256",
          "name": "needed",
          "type": "uint256"
        }
      ],
      "name": "ERC20InsufficientAllowance",
      "type": "error"
    },
    {
      "inputs": [
        {
          "internalType": "address",
          "name": "sender",
          "type": "address"
        },
        {
          "internalType": "uint256",
          "name": "balance",
          "type": "uint256"
        },
        {
          "internalType": "uint256",
          "name": "needed",
          "type": "uint256"
        }
      ],
      "name": "ERC20InsufficientBalance",
      "type": "error"
    },
    {
      "inputs": [
        {
          "internalType": "address",
          "name": "approver",
          "type": "address"
        }
      ],
      "name": "ERC20InvalidApprover",
      "type": "error"
    },
    {
      "inputs": [
        {
          "internalType": "address",
          "name": "receiver",
          "type": "address"
        }
      ],
      "name": "ERC20InvalidReceiver",
      "type": "error"
    },
    {
      "inputs": [
        {
          "internalType": "address",
          "name": "sender",
          "type": "address"
        }
      ],
      "name": "ERC20InvalidSender",
      "type": "error"
    },
    {
      "inputs": [
        {
          "internalType": "address",
          "name": "spender",
          "type": "address"
        }
      ],
      "name": "ERC20InvalidSpender",
      "type": "error"
    },
    {
      "inputs": [
        {
          "internalType": "address",
          "name": "owner",
          "type": "address"
        }
      ],
      "name": "OwnableInvalidOwner",
      "type": "error"
    },
    {
      "inputs": [
        {
          "internalType": "address",
          "name": "account",
          "type": "address"
        }
      ],
      "name": "OwnableUnauthorizedAccount",
      "type": "error"
    },
    {
      "anonymous": false,
      "inputs": [
        {
          "indexed": true,
          "internalType": "address",
          "name": "owner",
          "type": "address"
        },
        {
          "indexed": true,
          "internalType": "address",
          "name": "spender",
          "type": "address"
        },
        {
          "indexed": false,
          "internalType": "uint256",
          "name": "value",
          "type": "uint256"
        }
      ],
      "name": "Approval",
      "type": "event"
    },
    {
      "anonymous": false,
      "inputs": [
        {
          "indexed": true,
          "internalType": "address",
          "name": "previousOwner",
          "type": "address"
        },
        {
          "indexed": true,
          "internalType": "address",
          "name": "newOwner",
          "type": "address"
        }
      ],
      "name": "OwnershipTransferred",
      "type": "event"
    },
    {
      "anonymous": false,
      "inputs": [
        {
          "indexed": true,
          "internalType": "address",
          "name": "from",
          "type": "address"
        },
        {
          "indexed": true,
          "internalType": "address",
          "name": "to",
          "type": "address"
        },
        {
          "indexed": false,
          "internalType": "uint256",
          "name": "value",
          "type": "uint256"
        }
      ],
      "name": "Transfer",
      "type": "event"
    },
    {
      "inputs": [
        {
          "internalType": "uint256",
          "name": "_tokenAmount",
          "type": "uint256"
        }
      ],
      "name": "addLiquidityAndLaunch",
      "outputs": [
        {
          "internalType": "bool",
          "name": "",
          "type": "bool"
        }
      ],
      "stateMutability": "payable",
      "type": "function"
    },
    {
      "inputs": [
        {
          "internalType": "address",
          "name": "owner",
          "type": "address"
        },
        {
          "internalType": "address",
          "name": "spender",
          "type": "address"
        }
      ],
      "name": "allowance",
      "outputs": [
        {
          "internalType": "uint256",
          "name": "",
          "type": "uint256"
        }
      ],
      "stateMutability": "view",
      "type": "function"
    },
    {
      "inputs": [
        {
          "internalType": "address",
          "name": "spender",
          "type": "address"
        },
        {
          "internalType": "uint256",
          "name": "value",
          "type": "uint256"
        }
      ],
      "name": "approve",
      "outputs": [
        {
          "internalType": "bool",
          "name": "",
          "type": "bool"
        }
      ],
      "stateMutability": "nonpayable",
      "type": "function"
    },
    {
      "inputs": [
        {
          "internalType": "address",
          "name": "account",
          "type": "address"
        }
      ],
      "name": "balanceOf",
      "outputs": [
        {
          "internalType": "uint256",
          "name": "",
          "type": "uint256"
        }
      ],
      "stateMutability": "view",
      "type": "function"
    },
    {
      "inputs": [
        {
          "internalType": "uint256",
          "name": "value",
          "type": "uint256"
        }
      ],
      "name": "burn",
      "outputs": [],
      "stateMutability": "nonpayable",
      "type": "function"
    },
    {
      "inputs": [
        {
          "internalType": "address",
          "name": "account",
          "type": "address"
        },
        {
          "internalType": "uint256",
          "name": "value",
          "type": "uint256"
        }
      ],
      "name": "burnFrom",
      "outputs": [],
      "stateMutability": "nonpayable",
      "type": "function"
    },
    {
      "inputs": [
        {
          "internalType": "address",
          "name": "lpAddress",
          "type": "address"
        }
      ],
      "name": "burnLP",
      "outputs": [],
      "stateMutability": "nonpayable",
      "type": "function"
    },
    {
      "inputs": [
        {
          "internalType": "address",
          "name": "token",
          "type": "address"
        }
      ],
      "name": "createPair",
      "outputs": [
        {
          "internalType": "address",
          "name": "pairAddress",
          "type": "address"
        }
      ],
      "stateMutability": "nonpayable",
      "type": "function"
    },
    {
      "inputs": [],
      "name": "decimals",
      "outputs": [
        {
          "internalType": "uint8",
          "name": "",
          "type": "uint8"
        }
      ],
      "stateMutability": "view",
      "type": "function"
    },
    {
      "inputs": [],
      "name": "factory",
      "outputs": [
        {
          "internalType": "contract INETZFactory",
          "name": "",
          "type": "address"
        }
      ],
      "stateMutability": "view",
      "type": "function"
    },
    {
      "inputs": [],
      "name": "feeSetterContract",
      "outputs": [
        {
          "internalType": "contract FeeReward",
          "name": "",
          "type": "address"
        }
      ],
      "stateMutability": "view",
      "type": "function"
    },
    {
      "inputs": [],
      "name": "getPath",
      "outputs": [
        {
          "internalType": "address[]",
          "name": "path",
          "type": "address[]"
        }
      ],
      "stateMutability": "view",
      "type": "function"
    },
    {
      "inputs": [],
      "name": "launched",
      "outputs": [
        {
          "internalType": "bool",
          "name": "",
          "type": "bool"
        }
      ],
      "stateMutability": "view",
      "type": "function"
    },
    {
      "inputs": [],
      "name": "manualLaunch",
      "outputs": [],
      "stateMutability": "nonpayable",
      "type": "function"
    },
    {
      "inputs": [],
      "name": "name",
      "outputs": [
        {
          "internalType": "string",
          "name": "",
          "type": "string"
        }
      ],
      "stateMutability": "view",
      "type": "function"
    },
    {
      "inputs": [],
      "name": "owner",
      "outputs": [
        {
          "internalType": "address",
          "name": "",
          "type": "address"
        }
      ],
      "stateMutability": "view",
      "type": "function"
    },
    {
      "inputs": [],
      "name": "renounceOwnership",
      "outputs": [],
      "stateMutability": "nonpayable",
      "type": "function"
    },
    {
      "inputs": [],
      "name": "router",
      "outputs": [
        {
          "internalType": "contract INETZRouter02",
          "name": "",
          "type": "address"
        }
      ],
      "stateMutability": "view",
      "type": "function"
    },
    {
      "inputs": [
        {
          "internalType": "uint256",
          "name": "minAmount",
          "type": "uint256"
        }
      ],
      "name": "swapCoinForToken",
      "outputs": [
        {
          "internalType": "bool",
          "name": "",
          "type": "bool"
        }
      ],
      "stateMutability": "payable",
      "type": "function"
    },
    {
      "inputs": [
        {
          "internalType": "uint256",
          "name": "amount",
          "type": "uint256"
        },
        {
          "internalType": "uint256",
          "name": "minAmount",
          "type": "uint256"
        }
      ],
      "name": "swapTokenForCoin",
      "outputs": [
        {
          "internalType": "bool",
          "name": "",
          "type": "bool"
        }
      ],
      "stateMutability": "nonpayable",
      "type": "function"
    },
    {
      "inputs": [
        {
          "internalType": "uint256",
          "name": "amount",
          "type": "uint256"
        },
        {
          "internalType": "uint256",
          "name": "minAmount",
          "type": "uint256"
        },
        {
          "internalType": "address[]",
          "name": "path",
          "type": "address[]"
        }
      ],
      "name": "swapTokensForTokens",
      "outputs": [
        {
          "internalType": "bool",
          "name": "",
          "type": "bool"
        }
      ],
      "stateMutability": "nonpayable",
      "type": "function"
    },
    {
      "inputs": [],
      "name": "symbol",
      "outputs": [
        {
          "internalType": "string",
          "name": "",
          "type": "string"
        }
      ],
      "stateMutability": "view",
      "type": "function"
    },
    {
      "inputs": [],
      "name": "totalSupply",
      "outputs": [
        {
          "internalType": "uint256",
          "name": "",
          "type": "uint256"
        }
      ],
      "stateMutability": "view",
      "type": "function"
    },
    {
      "inputs": [],
      "name": "tradingPair",
      "outputs": [
        {
          "internalType": "address",
          "name": "",
          "type": "address"
        }
      ],
      "stateMutability": "view",
      "type": "function"
    },
    {
      "inputs": [
        {
          "internalType": "address",
          "name": "to",
          "type": "address"
        },
        {
          "internalType": "uint256",
          "name": "value",
          "type": "uint256"
        }
      ],
      "name": "transfer",
      "outputs": [
        {
          "internalType": "bool",
          "name": "",
          "type": "bool"
        }
      ],
      "stateMutability": "nonpayable",
      "type": "function"
    },
    {
      "inputs": [
        {
          "internalType": "address",
          "name": "from",
          "type": "address"
        },
        {
          "internalType": "address",
          "name": "to",
          "type": "address"
        },
        {
          "internalType": "uint256",
          "name": "value",
          "type": "uint256"
        }
      ],
      "name": "transferFrom",
      "outputs": [
        {
          "internalType": "bool",
          "name": "",
          "type": "bool"
        }
      ],
      "stateMutability": "nonpayable",
      "type": "function"
    },
    {
      "inputs": [
        {
          "internalType": "address",
          "name": "newOwner",
          "type": "address"
        }
      ],
      "name": "transferOwnership",
      "outputs": [],
      "stateMutability": "nonpayable",
      "type": "function"
    }
  ],
  "bytecode": "0x6080604052600680546001600160a01b03199081167318dfb3186cecebf484b2ea9d8714bbaeb64b5898179091556007805490911673fabc78709e5f99b50ecadf439621b33c0a05f87917905534801561005857600080fd5b506040516121683803806121688339810160408190526100779161056e565b3384846003610086838261067a565b506004610093828261067a565b5050506001600160a01b0381166100c557604051631e4fbdf760e01b8152600060048201526024015b60405180910390fd5b6100ce81610178565b50604051635e885d3b60e11b815230600482015261f0009063bd10ba76906024016020604051808303816000875af115801561010e573d6000803e3d6000fd5b505050506040513d601f19601f820116820180604052508101906101329190610738565b5061013d81836101ca565b61014630610204565b600880546001600160a01b0319166001600160a01b039290921691909117905561016f81610178565b5050505061079d565b600580546001600160a01b038381166001600160a01b0319831681179093556040519116919082907f8be0079c531659141344cd1fd0a4f28419497f9722a3daafe3b4186f6b6457e090600090a35050565b6001600160a01b0382166101f45760405163ec442f0560e01b8152600060048201526024016100bc565b6102006000838361036f565b5050565b6006546040805163c45a015560e01b815290516000926001600160a01b03169163c45a01559160048083019260209291908290030181865afa15801561024e573d6000803e3d6000fd5b505050506040513d601f19601f820116820180604052508101906102729190610761565b6001600160a01b031663c9c65396600660009054906101000a90046001600160a01b03166001600160a01b031663ad5c46486040518163ffffffff1660e01b8152600401602060405180830381865afa1580156102d3573d6000803e3d6000fd5b505050506040513d601f19601f820116820180604052508101906102f79190610761565b6040516001600160e01b031960e084901b1681526001600160a01b03918216600482015290851660248201526044016020604051808303816000875af1158015610345573d6000803e3d6000fd5b505050506040513d601f19601f820116820180604052508101906103699190610761565b92915050565b6001600160a01b03831661039a57806002600082825461038f919061077c565b9091555061040c9050565b6001600160a01b038316600090815260208190526040902054818110156103ed5760405163391434e360e21b81526001600160a01b038516600482015260248101829052604481018390526064016100bc565b6001600160a01b03841660009081526020819052604090209082900390555b6001600160a01b03821661042857600280548290039055610447565b6001600160a01b03821660009081526020819052604090208054820190555b816001600160a01b0316836001600160a01b03167fddf252ad1be2c89b69c2b068fc378daa952ba7f163c4a11628f55a4df523b3ef8360405161048c91815260200190565b60405180910390a3505050565b634e487b7160e01b600052604160045260246000fd5b600082601f8301126104c057600080fd5b81516001600160401b038111156104d9576104d9610499565b604051601f8201601f19908116603f011681016001600160401b038111828210171561050757610507610499565b60405281815283820160200185101561051f57600080fd5b60005b8281101561053e57602081860181015183830182015201610522565b506000918101602001919091529392505050565b80516001600160a01b038116811461056957600080fd5b919050565b6000806000806080858703121561058457600080fd5b84516001600160401b0381111561059a57600080fd5b6105a6878288016104af565b602087015190955090506001600160401b038111156105c457600080fd5b6105d0878288016104af565b935050604085015191506105e660608601610552565b905092959194509250565b600181811c9082168061060557607f821691505b60208210810361062557634e487b7160e01b600052602260045260246000fd5b50919050565b601f82111561067557806000526020600020601f840160051c810160208510156106525750805b601f840160051c820191505b81811015610672576000815560010161065e565b50505b505050565b81516001600160401b0381111561069357610693610499565b6106a7816106a184546105f1565b8461062b565b6020601f8211600181146106db57600083156106c35750848201515b600019600385901b1c1916600184901b178455610672565b600084815260208120601f198516915b8281101561070b57878501518255602094850194600190920191016106eb565b50848210156107295786840151600019600387901b60f8161c191681555b50505050600190811b01905550565b60006020828403121561074a57600080fd5b8151801515811461075a57600080fd5b9392505050565b60006020828403121561077357600080fd5b61075a82610552565b8082018082111561036957634e487b7160e01b600052601160045260246000fd5b6119bc806107ac6000396000f3fe60806040526004361061019c5760003560e01c80638091f3bf116100ec578063a95acb171161008a578063dd62ed3e11610064578063dd62ed3e14610490578063f2fde38b146104d6578063f3f7c8e7146104f6578063f887ea401461050957600080fd5b8063a95acb171461043b578063c45a015514610450578063d42f6e391461047057600080fd5b806395d89b41116100c657806395d89b41146103c65780639ccb0744146103db578063a4dd03d7146103fb578063a9059cbb1461041b57600080fd5b80638091f3bf146103745780638da5cb5b146103955780638eccf2cb146103b357600080fd5b8063313ce5671161015957806369ec973d1161013357806369ec973d146102e957806370a0823114610309578063715018a61461033f57806379cc67901461035457600080fd5b8063313ce5671461028957806342966c68146102a5578063555b37be146102c757600080fd5b806306fdde03146101a1578063095ea7b3146101cc57806318160ddd146101fc57806320716d661461021b57806323b872dd146102495780632bdfce6514610269575b600080fd5b3480156101ad57600080fd5b506101b6610529565b6040516101c39190611474565b60405180910390f35b3480156101d857600080fd5b506101ec6101e73660046114d7565b6105bb565b60405190151581526020016101c3565b34801561020857600080fd5b506002545b6040519081526020016101c3565b34801561022757600080fd5b5061023161f00081565b6040516001600160a01b0390911681526020016101c3565b34801561025557600080fd5b506101ec610264366004611503565b6105d5565b34801561027557600080fd5b506101ec6102843660046115af565b6105f9565b34801561029557600080fd5b50604051601281526020016101c3565b3480156102b157600080fd5b506102c56102c0366004611668565b610776565b005b3480156102d357600080fd5b506102dc610783565b6040516101c391906116c6565b3480156102f557600080fd5b506101ec6103043660046116e0565b61087a565b34801561031557600080fd5b5061020d610324366004611702565b6001600160a01b031660009081526020819052604090205490565b34801561034b57600080fd5b506102c56109fd565b34801561036057600080fd5b506102c561036f3660046114d7565b610a11565b34801561038057600080fd5b506008546101ec90600160a01b900460ff1681565b3480156103a157600080fd5b506005546001600160a01b0316610231565b6101ec6103c1366004611668565b610a2a565b3480156103d257600080fd5b506101b6610b22565b3480156103e757600080fd5b506102316103f6366004611702565b610b31565b34801561040757600080fd5b506102c5610416366004611702565b610c96565b34801561042757600080fd5b506101ec6104363660046114d7565b610ed5565b34801561044757600080fd5b506102c5610ee3565b34801561045c57600080fd5b50600754610231906001600160a01b031681565b34801561047c57600080fd5b50600854610231906001600160a01b031681565b34801561049c57600080fd5b5061020d6104ab36600461171f565b6001600160a01b03918216600090815260016020908152604080832093909416825291909152205490565b3480156104e257600080fd5b506102c56104f1366004611702565b610f5a565b6101ec610504366004611668565b610f95565b34801561051557600080fd5b50600654610231906001600160a01b031681565b60606003805461053890611758565b80601f016020809104026020016040519081016040528092919081815260200182805461056490611758565b80156105b15780601f10610586576101008083540402835291602001916105b1565b820191906000526020600020905b81548152906001019060200180831161059457829003601f168201915b5050505050905090565b6000336105c98185856110d7565b60019150505b92915050565b6000336105e38582856110e9565b6105ee858585611161565b506001949350505050565b600854600090600160a01b900460ff1661062e5760405162461bcd60e51b815260040161062590611792565b60405180910390fd5b600084116106725760405162461bcd60e51b815260206004820152601160248201527004e6f20546f6b656e7320746f207377617607c1b6044820152606401610625565b336000908152602081905260409020548411156106c85760405162461bcd60e51b8152602060048201526014602482015273496e73756666696369656e742062616c616e636560601b6044820152606401610625565b6106d33330866110d7565b6106de3330866105d5565b506006546106f79030906001600160a01b0316866110d7565b6006546040516338ed173960e01b81526001600160a01b03909116906338ed17399061072f90879087908790339042906004016117c2565b6000604051808303816000875af115801561074e573d6000803e3d6000fd5b505050506040513d6000823e601f3d908101601f191682016040526105ee91908101906117fe565b61078033826111c0565b50565b60408051600280825260608083018452926020830190803683375050600654604080516315ab88c960e31b815290519394506001600160a01b039091169263ad5c4648925060048083019260209291908290030181865afa1580156107ec573d6000803e3d6000fd5b505050506040513d601f19601f820116820180604052508101906108109190611894565b81600081518110610823576108236118b1565b60200260200101906001600160a01b031690816001600160a01b0316815250503081600181518110610857576108576118b1565b60200260200101906001600160a01b031690816001600160a01b03168152505090565b600854600090600160a01b900460ff166108a65760405162461bcd60e51b815260040161062590611792565b600083116108ea5760405162461bcd60e51b815260206004820152601160248201527004e6f20546f6b656e7320746f207377617607c1b6044820152606401610625565b336000908152602081905260409020548311156109405760405162461bcd60e51b8152602060048201526014602482015273496e73756666696369656e742062616c616e636560601b6044820152606401610625565b61094b3330856110d7565b6109563330856105d5565b5060065461096f9030906001600160a01b0316856110d7565b6006546001600160a01b03166318cbafe5848461098a610783565b33426040518663ffffffff1660e01b81526004016109ac9594939291906117c2565b6000604051808303816000875af11580156109cb573d6000803e3d6000fd5b505050506040513d6000823e601f3d908101601f191682016040526109f391908101906117fe565b5060019392505050565b610a056111f6565b610a0f6000611223565b565b610a1c8233836110e9565b610a2682826111c0565b5050565b600854600090600160a01b900460ff16610a565760405162461bcd60e51b815260040161062590611792565b60003411610a965760405162461bcd60e51b815260206004820152600d60248201526c139bc8115d1a195c881cd95b9d609a1b6044820152606401610625565b6006546001600160a01b0316637ff36ab53484610ab1610783565b33426040518663ffffffff1660e01b8152600401610ad294939291906118c7565b60006040518083038185885af1158015610af0573d6000803e3d6000fd5b50505050506040513d6000823e601f3d908101601f19168201604052610b1991908101906117fe565b50600192915050565b60606004805461053890611758565b6006546040805163c45a015560e01b815290516000926001600160a01b03169163c45a01559160048083019260209291908290030181865afa158015610b7b573d6000803e3d6000fd5b505050506040513d601f19601f82011682018060405250810190610b9f9190611894565b6001600160a01b031663c9c65396600660009054906101000a90046001600160a01b03166001600160a01b031663ad5c46486040518163ffffffff1660e01b8152600401602060405180830381865afa158015610c00573d6000803e3d6000fd5b505050506040513d601f19601f82011682018060405250810190610c249190611894565b6040516001600160e01b031960e084901b1681526001600160a01b03918216600482015290851660248201526044016020604051808303816000875af1158015610c72573d6000803e3d6000fd5b505050506040513d601f19601f820116820180604052508101906105cf9190611894565b600854600160a01b900460ff16610cbf5760405162461bcd60e51b815260040161062590611792565b6040516370a0823160e01b815233600482015281906000906001600160a01b038316906370a0823190602401602060405180830381865afa158015610d08573d6000803e3d6000fd5b505050506040513d601f19601f82011682018060405250810190610d2c91906118fc565b604051636eb1769f60e11b815233600482015230602482015290915081906001600160a01b0384169063dd62ed3e90604401602060405180830381865afa158015610d7b573d6000803e3d6000fd5b505050506040513d601f19601f82011682018060405250810190610d9f91906118fc565b1015610de05760405162461bcd60e51b815260206004820152601060248201526f105c1c1c9bdd9948131408199a5c9cdd60821b6044820152606401610625565b6040516370a0823160e01b815233600482018190526001600160a01b038416916323b872dd919061dead9084906370a0823190602401602060405180830381865afa158015610e33573d6000803e3d6000fd5b505050506040513d601f19601f82011682018060405250810190610e5791906118fc565b6040516001600160e01b031960e086901b1681526001600160a01b03938416600482015292909116602483015260448201526064016020604051808303816000875af1158015610eab573d6000803e3d6000fd5b505050506040513d601f19601f82011682018060405250810190610ecf9190611915565b50505050565b6000336105c9818585611161565b600854600160a01b900460ff1615610f3d5760405162461bcd60e51b815260206004820152601b60248201527f546f6b656e20697320616c6c207265616479206c61756e6368656400000000006044820152606401610625565b610f456111f6565b6008805460ff60a01b1916600160a01b179055565b610f626111f6565b6001600160a01b038116610f8c57604051631e4fbdf760e01b815260006004820152602401610625565b61078081611223565b600854600090600160a01b900460ff1615610ff25760405162461bcd60e51b815260206004820152601b60248201527f546f6b656e20697320616c6c207265616479206c61756e6368656400000000006044820152606401610625565b610ffd3330846110d7565b611008333084611161565b6006546110209030906001600160a01b0316846110d7565b60065460405163f305d71960e01b81523060048201526024810184905260006044820181905260648201523360848201524260a48201526001600160a01b039091169063f305d71990349060c40160606040518083038185885af115801561108c573d6000803e3d6000fd5b50505050506040513d601f19601f820116820180604052508101906110b19190611937565b50506008805460ff60a01b1916600160a01b90811791829055900460ff16915050919050565b6110e48383836001611275565b505050565b6001600160a01b038381166000908152600160209081526040808320938616835292905220546000198114610ecf578181101561115257604051637dc7a0d960e11b81526001600160a01b03841660048201526024810182905260448101839052606401610625565b610ecf84848484036000611275565b6001600160a01b03831661118b57604051634b637e8f60e11b815260006004820152602401610625565b6001600160a01b0382166111b55760405163ec442f0560e01b815260006004820152602401610625565b6110e483838361134a565b6001600160a01b0382166111ea57604051634b637e8f60e11b815260006004820152602401610625565b610a268260008361134a565b6005546001600160a01b03163314610a0f5760405163118cdaa760e01b8152336004820152602401610625565b600580546001600160a01b038381166001600160a01b0319831681179093556040519116919082907f8be0079c531659141344cd1fd0a4f28419497f9722a3daafe3b4186f6b6457e090600090a35050565b6001600160a01b03841661129f5760405163e602df0560e01b815260006004820152602401610625565b6001600160a01b0383166112c957604051634a1406b160e11b815260006004820152602401610625565b6001600160a01b0380851660009081526001602090815260408083209387168352929052208290558015610ecf57826001600160a01b0316846001600160a01b03167f8c5be1e5ebec7d5bd14f71427d1e84f3dd0314c0f7b2291e5b200ac8c7c3b9258460405161133c91815260200190565b60405180910390a350505050565b6001600160a01b03831661137557806002600082825461136a9190611965565b909155506113e79050565b6001600160a01b038316600090815260208190526040902054818110156113c85760405163391434e360e21b81526001600160a01b03851660048201526024810182905260448101839052606401610625565b6001600160a01b03841660009081526020819052604090209082900390555b6001600160a01b03821661140357600280548290039055611422565b6001600160a01b03821660009081526020819052604090208054820190555b816001600160a01b0316836001600160a01b03167fddf252ad1be2c89b69c2b068fc378daa952ba7f163c4a11628f55a4df523b3ef8360405161146791815260200190565b60405180910390a3505050565b602081526000825180602084015260005b818110156114a25760208186018101516040868401015201611485565b506000604082850101526040601f19601f83011684010191505092915050565b6001600160a01b038116811461078057600080fd5b600080604083850312156114ea57600080fd5b82356114f5816114c2565b946020939093013593505050565b60008060006060848603121561151857600080fd5b8335611523816114c2565b92506020840135611533816114c2565b929592945050506040919091013590565b634e487b7160e01b600052604160045260246000fd5b604051601f8201601f1916810167ffffffffffffffff8111828210171561158357611583611544565b604052919050565b600067ffffffffffffffff8211156115a5576115a5611544565b5060051b60200190565b6000806000606084860312156115c457600080fd5b8335925060208401359150604084013567ffffffffffffffff8111156115e957600080fd5b8401601f810186136115fa57600080fd5b803561160d6116088261158b565b61155a565b8082825260208201915060208360051b85010192508883111561162f57600080fd5b6020840193505b8284101561165a578335611649816114c2565b825260209384019390910190611636565b809450505050509250925092565b60006020828403121561167a57600080fd5b5035919050565b600081518084526020840193506020830160005b828110156116bc5781516001600160a01b0316865260209586019590910190600101611695565b5093949350505050565b6020815260006116d96020830184611681565b9392505050565b600080604083850312156116f357600080fd5b50508035926020909101359150565b60006020828403121561171457600080fd5b81356116d9816114c2565b6000806040838503121561173257600080fd5b823561173d816114c2565b9150602083013561174d816114c2565b809150509250929050565b600181811c9082168061176c57607f821691505b60208210810361178c57634e487b7160e01b600052602260045260246000fd5b50919050565b602080825260169082015275151bdad95b881b9bdd081b185d5b98da1959081e595d60521b604082015260600190565b85815284602082015260a0604082015260006117e160a0830186611681565b6001600160a01b0394909416606083015250608001529392505050565b60006020828403121561181057600080fd5b815167ffffffffffffffff81111561182757600080fd5b8201601f8101841361183857600080fd5b80516118466116088261158b565b8082825260208201915060208360051b85010192508683111561186857600080fd5b6020840193505b8284101561188a57835182526020938401939091019061186f565b9695505050505050565b6000602082840312156118a657600080fd5b81516116d9816114c2565b634e487b7160e01b600052603260045260246000fd5b8481526080602082015260006118e06080830186611681565b6001600160a01b03949094166040830152506060015292915050565b60006020828403121561190e57600080fd5b5051919050565b60006020828403121561192757600080fd5b815180151581146116d957600080fd5b60008060006060848603121561194c57600080fd5b5050815160208301516040909301519094929350919050565b808201808211156105cf57634e487b7160e01b600052601160045260246000fdfea26469706673582212203861fce68720ca9263146da166e3421360ffab1ed6b47cd219b0634bc6691d8d64736f6c634300081a0033",
  "linkReferences": {},
  "deployedLinkReferences": {}
}